S01700004763634170706C69636174696F6E312E737265635B
S11300000C942A000C9434000C9434000C943400A6
S11300100C9434000C9434000C9434000C9434008C
S11300200C9434000C9434000C9434000C9434007C
S11300300C9434000C9434000C9434000C9434006C
S11300400C9434000C9434000C9434000C9434005C
S11300500C94340011241FBECFE5D8E0DEBFCDBF21
S11300600E943C000C947B000C9400000E946F00E2
S113007008950E94770008950E9436000E9460004F
S113008080E00E946B000E943900823669F018F407
S1130090813631F0F8CF833659F0843669F0F3CFE6
S11300A081E60E946700EFCF82E60E946700EBCFF3
S11300B083E60E946700E7CF84E60E946700E3CFEF
S11300C0BD9ABE98BF9ABC9A83E58DB908958FB93D
S11300D0779BFECF0895811101C0C498089588E1EB
S11300E08AB986E880BD87E689B910BC08955F9B0C
S10D00F0FECF8CB10895F894FFCF01
S9030000FC
